:100000000C9463000C948B000C948B000C94EF09FF
:100010000C94EF090C94EF090C948B000C948B005A
:100020000C948B000C948B000C948B000C94330973
:100030000C948B000C948B000C948B000C948B0014
:100040000C9476070C948B000C94E6070C94C00774
:100050000C948B000C948B000C948B000C948B00F4
:100060000C9418080C948B0000000000240027005A
:100070002A0000000008000201000003040700003D
:1000800000000000000000000000230026002900FE
:1000900000000000250028002B00040404040404D0
:1000A0000404020202020202030303030303010227
:1000B00004081020408001020408102001020408F6
:1000C0001020670A501011241FBECFEFD8E0DEBF0A
:1000D000CDBF12E0A0E0B1E0E6E6F6E202C0059096
:1000E0000D92AC30B107D9F724E0ACE0B2E001C02A
:1000F0001D92A832B207E1F710E0C2E6D0E004C0DA
:100100002197FE010E942E11C136D107C9F70E9426
:100110008C0B0C9426130C940000833081F028F48F
:10012000813099F08230A9F008958730A9F08830A5
:10013000C9F08430B1F4809180008F7D03C080913C
:1001400080008F7780938000089584B58F7784BD79
:10015000089584B58F7DFBCF8091B0008F77809319
:10016000B00008958091B0008F7DF9CFCF93DF93D9
:10017000282F30E0F901EE58FF4F8491F901E25544
:10018000FF4FD491F901E656FF4FC491CC23A1F063
:1001900081110E948D00EC2FF0E0EE0FFF1FEA5757
:1001A000FF4FA591B491EC91ED2381E090E009F42B
:1001B00080E0DF91CF91089580E090E0FACF1F9327
:1001C000CF93DF93282F30E0F901EE58FF4F849151
:1001D000F901E255FF4FD491F901E656FF4FC49162
:1001E000CC23A9F0162F81110E948D00EC2FF0E096
:1001F000EE0FFF1FE057FF4FA591B4918FB7F89412
:10020000EC91111108C0D095DE23DC938FBFDF91F4
:10021000CF911F910895DE2BF8CFCF93DF9390E01D
:10022000FC01E255FF4F249186569F4FFC018491BB
:100230008823D1F090E0880F991FFC01E859FF4F07
:10024000A591B491FC01E057FF4FC591D491611184
:100250000EC09FB7F8948C91E22FE0958E238C937B
:100260002881E223E8839FBFDF91CF9108958FB764
:10027000F894EC91E22BEC938FBFF6CF3FB7F89454
:100280008091F7029091F802A091F902B091FA02E0
:1002900026B5A89B05C02F3F19F00196A11DB11DE1
:1002A0003FBFBA2FA92F982F8827BC01CD01620F1D
:1002B000711D811D911D42E0660F771F881F991FD8
:1002C0004A95D1F708958F929F92AF92BF92CF92A5
:1002D000DF92EF92FF924B015C010E943E016B01A5
:1002E0007C010E943E016C197D098E099F09683EC0
:1002F000734081059105A8F321E0821A9108A108B5
:10030000B10888EEC80E83E0D81EE11CF11C8114F0
:100310009104A104B10429F7FF90EF90DF90CF90F2
:10032000BF90AF909F908F900895AF92BF92CF9261
:10033000DF92EF92FF920F931F93CF93DF936C01A5
:100340007B018B01040F151FEB015E01AE18BF0886
:10035000C017D10759F06991D601ED91FC91019038
:10036000F081E02DC6010995892B79F7C501DF9150
:10037000CF911F910F91FF90EF90DF90CF90BF90A2
:10038000AF900895FC01538D448D252F30E0842FCC
:1003900090E0821B930B541710F0CF9608950197AD
:1003A0000895FC01918D828D981761F0A28DAE0F9A
:1003B000BF2FB11D5D968C91928D9F5F9F73928F21
:1003C00090E008958FEF9FEF0895FC01918D828D4D
:1003D000981731F0828DE80FF11D858D90E008951A
:1003E0008FEF9FEF0895FC01918D228D892F90E072
:1003F000805C9F4F821B91098F73992708958BEF23
:1004000092E00E94F30121E0892B09F420E0822F81
:10041000089580E090E0892B29F00E94FF0181116E
:100420000C9400000895FC01A48DA80FB92FB11DF4
:10043000A35ABF4F2C91848D90E001968F7399271A
:10044000848FA689B7892C93A089B1898C918370F8
:1004500080648C93938D848D981306C00288F389F1
:10046000E02D80818F7D80830895EF92FF920F931E
:100470001F93CF93DF93EC0181E0888F9B8D8C8D50
:1004800098131AC0E889F989808185FF15C09FB744
:10049000F894EE89FF896083E889F9898081837007
:1004A000806480839FBF81E090E0DF91CF911F91B6
:1004B0000F91FF90EF900895F62E0B8D10E00F5FD7
:1004C0001F4F0F731127E02E8C8D8E110CC00FB6AD
:1004D00007FCFACFE889F989808185FFF5CFCE0145
:1004E0000E941302F1CFEB8DEC0FFD2FF11DE35AAB
:1004F000FF4FF0829FB7F8940B8FEA89FB898081C8
:100500008062CFCFCF93DF93EC01888D8823B9F041
:10051000AA89BB89E889F9898C9185FD03C080810E
:1005200086FD0DC00FB607FCF7CF8C9185FFF2CF8B
:10053000808185FFEDCFCE010E941302E9CFDF91CC
:10054000CF91089508951F93CF93DF93C1E0C09397
:100550004E02882399F1D091B8001091BA00809191
:10056000BC008A7B8093BC0060E082E10E94DF00D7
:1005700060E083E10E94DF001092B802C093B702EE
:100580001092920261E082E10E94DF0061E083E16B
:100590000E94DF008091B9008E7F8093B900809126
:1005A000B9008D7F8093B90088E48093B80085E41A
:1005B0008093BC001093BA00D093B800DF91CF9124
:1005C0001F91089520916F02260F3327331F213288
:1005D0003105ECF42091B802FC0190E080E0243079
:1005E00069F082E00895A0916F022191AC01415B16
:1005F0005D4FA40FB52FB11D2C930196861798F36C
:1006000080916F02680F60936F0280E0089581E02F
:10061000089508958FEF9FEF08958FEF9FEF08954E
:1006200080914D0290E09195819591090895CF9226
:10063000DF92EF92FF920F931F93CF93DF937C0192
:10064000CB018A012091BE02222389F0EB016B01CC
:10065000C40ED51ECC15DD0569F06991D701ED9169
:10066000FC910190F081E02DC7010995F3CF642F33
:100670000E94E202C801DF91CF911F910F91FF907C
:10068000EF90DF90CF900895CF93DF931F92CDB777
:10069000DEB769832091BE022223F9F02091E102A6
:1006A000203258F021E030E0FC013383228390E0D7
:1006B00080E00F90DF91CF9108958091BF02E82FE5
:1006C000F0E0E054FD4F998190838F5F8093BF02EB
:1006D0008093E10281E090E0ECCF61E0CE010196F1
:1006E0000E94E202F7CFCF92DF92EF92FF920F9338
:1006F0001F93CF93DF93FC01C48121E02093BE02BE
:10070000C093E0021092BF021092E1028385682B31
:1007100088E993E00E944403D091E102D13208F0CD
:1007200092C00E943E016B017C018091B802811150
:1007300065C082E08093B80281E08093B7028FEFBA
:100740008093B6021092B502D093B402A0ECB2E04E
:10075000E4E9F2E080E0D81385C010929302809122
:100760009302CC0FC82BC0939302809192028130E8
:1007700009F07CC0109292020E943E016B017C0144
:10078000809193028093BB008091BA029091BB024A
:10079000A091BC02B091BD02892B8A2B8B2B99F0C2
:1007A0000E943E010091BA021091BB022091BC024E
:1007B0003091BD026C197D098E099F090617170734
:1007C00028073907E0F18091BC0083FDD9CF85EC83
:1007D0008093BC000E943E016B017C018091B802B5
:1007E000823009F445C08091B6028F3F61F180915B
:1007F000B602803241F18091B60225C08091BA02E2
:100800009091BB02A091BC02B091BD02892B8A2BB2
:100810008B2B09F48ACF0E943E010091BA021091FD
:10082000BB022091BC023091BD026C197D098E097A
:100830009F09061717072807390708F076CF809118
:10084000B9020E94A3021092BF021092E10210921C
:10085000BE02DF91CF911F910F91FF90EF90DF903B
:10086000CF9008959D9191938F5F75CF85EEB0CF16
:100870008091BA029091BB02A091BC02B091BD02DE
:10088000892B8A2B8B2B09F4A9CF0E943E01009162
:10089000BA021091BB022091BC023091BD026C19CA
:1008A0007D098E099F09061717072807390708F0E1
:1008B00095CFC5CFCF92DF92EF92FF92CF93DF9388
:1008C000EC01603282E07807CCF5653B710514F0ED
:1008D00064EB70E0898128E830E0281B310987FD4E
:1008E0003395220F331F220F331F6901330FEE0898
:1008F000FF088A8128E532E0281B310987FD3395FE
:10090000220F331F220F331F032E000C440B550BF5
:100910002C193D094E095F09DB0177FF02C0B0E0E9
:10092000A0E00E94B21024EB30E040E050E00E94D2
:100930008810C20ED31EE41EF51EB601E881EC300D
:1009400070F5298188E890E0821B910927FD939535
:10095000880F991F880F991F681779077CF02A81E3
:1009600088E592E0821B910927FD9395880F991FD6
:10097000880F991F681779070CF4CB010297880F2D
:10098000991F4FB7F8942E2F30E0F901EE0FFF1F9B
:10099000E20FF31FEC55FC4F928381834FBFDF9131
:1009A000CF91FF90EF90DF90CF9008951F93CF935A
:1009B000DF93EC01162F88818C3008F04EC061E087
:1009C000812F0E940D018881282F30E0F901EE0F60
:1009D000FF1FE20FF31FEC55FC4F1F736081607C1B
:1009E000612B608319821A822CE0622F0E942211EF
:1009F000829FB001112430E020E0AB01420F531F71
:100A0000FA01EE0FFF1FE40FF51FEC55FC4F90812C
:100A100096FD16C02F5F3F4F2C30310571F78111C5
:100A20000FC01092800082E08093810010928500B8
:100A300010928400B19A80916F00826080936F0061
:100A4000E8818E2F90E0FC01EE0FFF1FE80FF91FE9
:100A5000EC55FC4F8081806480838881DF91CF9149
:100A60001F9108952091E4023091E502281739077B
:100A700071F49091E2028091E302981741F0E091C5
:100A8000E202F0E0E45FFD4F808190E008958FEF97
:100A90009FEF0895EF92FF920F931F93CF93DF93F1
:100AA000DC015C96ED90FC905D97E114F10479F423
:100AB00081E090E013969C938E93129790E080E0F3
:100AC000DF91CF911F910F91FF90EF900895519674
:100AD000ED91FC91529750968C915097982F90954C
:100AE0000FB75E962C915E97122F127021FD6095C4
:100AF000F8942081112319F1282B2083E7012197F5
:100B0000F1F728E0462F50E0308160FF1AC0382B03
:100B10003083E7012197F1F7BA0175956795215068
:100B200089F7112381F08081892380830FBF5C9630
:100B30008D919C910197F1F781E090E0C1CF29233D
:100B4000DCCF3923E5CF9081892BEFCF2091E402D0
:100B50003091E5022817390761F48091E302209172
:100B6000E20290E0805C9F4F821B91098F7399276E
:100B7000089590E080E008952091E4023091E5022C
:100B800028173907B9F49091E2028091E30298178F
:100B900089F0E091E202F0E0E45FFD4F8081209176
:100BA000E20230E02F5F3F4F2F7333272093E202A2
:100BB00090E008958FEF9FEF089590E080E0089512
:100BC0000F931F93CF938C01C62F0E9473036C2F3A
:100BD0006460C8010E9473036C2F6B7FC8010E9480
:100BE000730383EC90E00197F1F7CF911F910F9180
:100BF00008950F931F93CF93DF938C01D62FC42FAB
:100C0000607F642B0E94E00580E1D89FB001112431
:100C10006C2BC801DF91CF911F910F910C94E005CF
:100C2000CF93DF93CDB7DEB728970FB6F894DEBF2A
:100C30000FBECDBF98E0ECE0F1E0DE01119601902F
:100C40000D929A95E1F790912004961708F46FEFB2
:100C5000262F30E0220F331F41E050E04C0F5D1F84
:100C6000240F351FF9016081680F606840E088E15A
:100C700094E028960FB6F894DEBF0FBECDBFDF918B
:100C8000CF910C94F90540E061E088E194E00E9486
:100C9000F9058BE39FE10197F1F7089541E00E9488
:100CA000F90581E090E008958F929F92AF92BF92F4
:100CB0000F931F93CF93DF93CDB7DEB7A1970FB6F6
:100CC000F894DEBF0FBECDBF19A2423008F44AE04F
:100CD0008E010F5D1F4F842E912CB12CA12CA501EC
:100CE00094010E94F110E62FB901CA01EA3044F5DF
:100CF000E05DD801EE938D01232B242B252B79F772
:100D000090E080E0109769F0FD0101900020E9F784
:100D10003197AF014A1B5B0BBD0188E194E00E9453
:100D20009501A1960FB6F894DEBF0FBECDBFDF913F
:100D3000CF911F910F91BF90AF909F908F9008958A
:100D4000E95CD7CFFC0101900020E9F73197AF01B2
:100D5000481B590BBC0188E194E00C949501FC01FF
:100D600080819181009711F00C94D01108950F9318
:100D70001F93CF93DF93EC0188819981009759F0FD
:100D80002A813B812617370730F081E0DF91CF9130
:100D90001F910F9108958B016F5F7F4F0E94591231
:100DA000009759F0998388831B830A832C813D81A6
:100DB000232B59F7FC011082E8CF80E0E7CFEF92B8
:100DC000FF920F931F93CF93DF93EC017B01FB0105
:100DD00001900020E9F731978F01061B170BB8012E
:100DE0000E94B70628813981811113C02115310570
:100DF00019F0C9010E94D011198218821D821C822B
:100E00001B821A82DF91CF911F910F91FF90EF907B
:100E100008951D830C83B701C901DF91CF911F9104
:100E20000F91FF90EF900C941F13CF93DF93EC0181
:100E3000198218821B821A821D821C8270E060E077
:100E40000E94B7062881398181110FC02115310513
:100E500019F0C9010E94D011198218821D821C82CA
:100E60001B821A82DF91CF9108951D821C8269E94D
:100E700071E0C901DF91CF910C941F1385ED809330
:100E8000BC008091BA029091BB02A091BC02B091CB
:100E9000BD020796A11DB11D23E0B695A7959795B4
:100EA00087952A95D1F72091BC0024FD03C01092AC
:100EB000B80208954091BA025091BB026091BC0201
:100EC0007091BD02452B462B472B69F30097A10576
:100ED000B10541F02AE22A95F1F700C00197A10976
:100EE000B109E1CF8091B9020C94A3021F920F9235
:100EF0000FB60F9211242F933F938F939F93AF932D
:100F0000BF938091F3029091F402A091F502B09109
:100F1000F6023091F20223E0230F2D3758F50196A7
:100F2000A11DB11D2093F2028093F3029093F4026D
:100F3000A093F502B093F6028091F7029091F80227
:100F4000A091F902B091FA020196A11DB11D809302
:100F5000F7029093F802A093F902B093FA02BF91BE
:100F6000AF919F918F913F912F910F900FBE0F9056
:100F70001F90189526E8230F0296A11DB11DD2CF10
:100F80001F920F920FB60F9211242F933F934F93FE
:100F90005F936F937F938F939F93AF93BF93EF93E1
:100FA000FF938BEF92E00E941302FF91EF91BF91AC
:100FB000AF919F918F917F916F915F914F913F91F1
:100FC0002F910F900FBE0F901F9018951F920F92A8
:100FD0000FB60F9211242F938F939F93EF93FF934C
:100FE000E0910B03F0910C038081E0911103F091EB
:100FF000120382FD1BC09081809114038F5F8F7359
:1010000020911503821741F0E0911403F0E0E550C0
:10101000FD4F958F80931403FF91EF919F918F91D6
:101020002F910F900FBE0F901F9018958081F4CFD5
:101030001F920F920FB60F9211242F933F934F934D
:101040005F936F937F938F939F93AF93BF93EF9330
:10105000FF938091B900887F803609F44AC0F0F58B
:10106000883209F4A5C018F5803109F499C0B8F4A4
:10107000882309F4F5C0883009F492C0FF91EF91FC
:10108000BF91AF919F918F917F916F915F914F91A0
:101090003F912F910F900FBE0F901F9018958831A0
:1010A00009F486C0803251F78093B60214C08034B0
:1010B00009F49BC040F48033B9F38833F9F6809388
:1010C000B60285ECAEC0803509F483C0883509F4DA
:1010D00094C0883499F60E943E07D0CF883909F42D
:1010E0008AC038F5883729F050F4883611F08037F7
:1010F00029F683E08093B8021092910255C0883897
:1011000009F479C0803919F0803809F0B7CF80919F
:101110009102803208F06FC0E091910281E08E0F61
:10112000809391028091BB00F0E0EF58FD4F8083E7
:101130003BC0803B39F0D0F4803A09F477C0883A5C
:1011400009F09CCF84E08093B80210927002109254
:101150006F02F0E0E0E0099580916F0281110FC00D
:1011600081E080936F0210924F0209C0803C09F425
:10117000A8CF883C09F4A5CF883B09F07FCFE09148
:10118000700281E08E0F80937002F0E0E15BFD4F12
:1011900080818093BB009091700280916F0229C082
:1011A000809193028093BB0085EC8093BC0066CF56
:1011B0009091B5028091B402981758F5E091B5026C
:1011C00081E08E0F8093B502F0E0EC56FD4F8081F8
:1011D000E9CFE091B50281E08E0F8093B502809156
:1011E000BB00F0E0EC56FD4F80839091B5028091FA
:1011F000B4029817C8F285E8D8CFE091B50281E033
:101200008E0F8093B5028091BB00F0E0EC56FD4F4D
:1012100080838091B70281115ECF81E0809392023A
:1012200084EA8093BC001092B80228CF85EC8093AA
:10123000BC001092B80280919102803230F4E091AB
:101240009102F0E0EF58FD4F10826091910270E042
:1012500081E792E0F0E0E0E00995109291020ECF74
:101260001092B60238CF1F920F920FB60F92112430
:101270002F933F934F935F936F937F938F939F939E
:10128000AF93BF93CF93DF93EF93FF9380914C0283
:10129000C091C803D0E087FF24C01092850010924F
:1012A000840080914C028F5F80934C0280914C02AD
:1012B000082E000C990B8C179D0724F480914C028A
:1012C0008C30C4F180918400909185000496803424
:1012D0009C4908F47AC0809184009091850004961E
:1012E00076C080914C02082E000C990B8C179D073C
:1012F000C4F6E0914C028E2FEE0F990BFC01EE0F1D
:10130000FF1FE80FF91FEC55FC4F808186FFC9CF06
:10131000E0914C028E2FEE0F990BFC01EE0FFF1F98
:10132000E80FF91FEC55FC4F808160E08F730E943D
:10133000DF00B7CF2091840030918500E0914C020E
:101340008E2FEE0F990BFC01EE0FFF1FE80FF91F18
:10135000EC55FC4F81819281820F931F90938900FD
:1013600080938800E0914C028E2FEE0F990BFC01C8
:10137000EE0FFF1FE80FF91FEC55FC4F808186FF31
:1013800011C0E0914C028E2FEE0F990BFC01EE0F75
:10139000FF1FE80FF91FEC55FC4F808161E08F7350
:1013A0000E94DF00FF91EF91DF91CF91BF91AF914C
:1013B0009F918F917F916F915F914F913F912F916D
:1013C0000F900FBE0F901F90189580E49CE99093AA
:1013D0008900809388008FEF80934C02E3CF1F92A7
:1013E0000F920FB60F9211242F933F934F935F9359
:1013F0006F937F938F939F93AF93BF93EF93FF93DD
:10140000E091E402F091E502309749F0A685B785B6
:101410008585968D91FF14C09C918923A1F4FF913D
:10142000EF91BF91AF919F918F917F916F915F915C
:101430004F913F912F910F900FBE0F901F901895D5
:101440009C91892361F7A389B4899C9185898095B2
:1014500089238C93868997890197F1F7608D718D27
:10146000A685B785558538E020E0CB010197F1F7D7
:10147000822F90E095958795282F4C91452309F070
:101480002068315091F7868D81FD20958091E3028F
:1014900090E001968F7399273091E202381799F006
:1014A000A091E302B0E0A45FBD4F2C938093E302D0
:1014B000828D938D0197F1F7A389B4898C919589D9
:1014C000892B8C93ACCF868D8160868FF1CF109263
:1014D000FE021092FD0288EE93E0A0E0B0E080935F
:1014E000FF0290930003A0930103B093020328E14D
:1014F00031E03093FC022093FB0225EC30E0309386
:1015000008032093070324EC30E030930A03209370
:10151000090320EC30E030930C0320930B0321EC03
:1015200030E030930E0320930D0322EC30E0309333
:10153000100320930F0326EC30E030931203209326
:1015400011031092140310921503109216031092B7
:10155000170310929B0310929A0380939C0390931D
:101560009D03A0939E03B0939F038AE291E0909322
:1015700099038093980310921B0410921A048EE42E
:1015800091E0909319048093180487E280931C04DF
:1015900080E18093210482E080932204109223044E
:1015A0008091C8038C3008F0AFC091E0980F909301
:1015B000C8038093150490E0FC01EE0FFF1FE80FB5
:1015C000F91FEC55FC4F88EB9BE09283818380915F
:1015D000C8038C3008F09CC091E0980F9093C8032A
:1015E0008093120490E0FC01EE0FFF1FE80FF91F3B
:1015F000EC55FC4F88EB9BE0928381831092F603BD
:101600001092F50388EE93E0A0E0B0E08093F7033A
:101610009093F803A093F903B093FA038CE391E05D
:101620009093F4038093F30310920A041092090438
:1016300010920C0410920B0410920E0410920D04E0
:101640001092100410920F04609111046E7F6D7F50
:10165000609311046695617081E068270E94DF0045
:1016600061E081E00E940D01EFEAF0E0E491E09397
:101670000304EBE9F0E0E491F0E0EE0FFF1FE05728
:10168000FF4F85919491909305048093040460E04A
:1016900080E00E940D018091110481FD04C061E091
:1016A00080E00E94DF001092FF03EEEAF0E0E49198
:1016B000E0930004EAE9F0E0E491F0E0EE0FFF1FB0
:1016C000EA57FF4F8591949190930204809301040F
:1016D0008DEE93E00E94150787EE93E00E941507B8
:1016E00081EE93E00E9415078BED93E00E941507B1
:1016F00085ED93E00E9415078FEC93E00E9415079B
:1017000089EC93E00C9415078FEF809315045FCF5D
:101710008FEF8093120472CF789484B5826084BD79
:1017200084B5816084BD85B5826085BD85B58160E5
:1017300085BD80916E00816080936E001092810063
:10174000809181008260809381008091810081601E
:1017500080938100809180008160809380008091DF
:10176000B10084608093B1008091B000816080936B
:10177000B00080917A00846080937A0080917A0032
:10178000826080937A0080917A00816080937A00F1
:1017900080917A00806880937A001092C100E09175
:1017A0000B03F0910C0382E08083E0910703F0913A
:1017B00008031082E0910903F0910A038FEC808303
:1017C00010921303E0910F03F091100386E08083E1
:1017D000E0910D03F0910E03808180618083E091A0
:1017E0000D03F0910E03808188608083E0910D03EA
:1017F000F0910E03808180688083E0910D03F09169
:101800000E0380818F7D808310920E0410920D0450
:1018100010920C0410920B0410920A041092090406
:101820008DE991E09093100480930F049091FF0351
:10183000963108F047C02DEB30E030930A04209336
:1018400009042BE931E030930C0420930B042CE2C3
:1018500031E030930E0420930D042091680084E061
:10186000983048F031E09E3008F430E081E001C06B
:10187000880F3A95EAF7822B809368002DE630E0D6
:10188000983050F02BE630E09E3030F02CE630E01F
:10189000963110F030E020E03093070420930604E6
:1018A000292F30E0983008F011C381E001C0880F83
:1018B0009A95EAF78093080480910F0490911004A0
:1018C0000197F1F780910D0490910E04892B49F155
:1018D000E091E402F091E50223E0E33FF20709F131
:1018E000309739F0A389B4899C91858980958923A3
:1018F0008C93809111048E7F809311041092E302E7
:101900001092E20283EF93E09093E5028093E40269
:10191000E0910604F0910704808190910804892BDE
:10192000808360E084E00E940D0160E085E00E9419
:101930000D0160E086E00E940D0160E087E00E94FA
:101940000D0160E088E00E940D0160E089E00E94E6
:101950000D0160E08CE00E940D0160E08DE00E94CE
:101960000D0163E070E085E194E00E94D6046BE035
:1019700070E082E194E00E94D60470E060E085E1CE
:1019800094E00E945A040BE416E48BE3282E8FE1C6
:10199000382E96E0892E912C20E0C22E20E0D22E07
:1019A000C1E0D0E03AE5E32EF12C44EBA42EB12CBB
:1019B00080911D04886080931D0432E030932004E0
:1019C00062E370E080E090E00E9463016091230494
:1019D00088E194E00E94730368EE73E080E090E099
:1019E0000E94630160E388E194E00E94E005C80181
:1019F0000197F1F760E388E194E00E94E005C801F7
:101A00000197F1F760E388E194E00E94E00583E547
:101A100092E00197F1F760E288E194E00E94E0052E
:101A200060911D04606240E088E194E00E94F90545
:101A300084E080931E0440E06CE088E194E00E9422
:101A4000F9050E94430622E020931F0440E066E06F
:101A500088E194E00E94F90540E062E088E194E0CA
:101A60000E94F905C1010197F1F738E03093230492
:101A700060E088E194E00E94730360E080E00E94EF
:101A8000100686E591E00E94A20661E080E00E94D7
:101A9000100686E691E00E94A20668EB7BE080E0FB
:101AA00090E00E9463010E9443061092F10210929E
:101AB000F0021092EF021092EE021092ED021092DC
:101AC000EC021092EB021092EA021092E9021092DC
:101AD000E8021092E7021092E60284E00E94B6004B
:101AE000892B51F4D093F102C093F0026AE070E0C8
:101AF00080E090E00E94630185E00E94B600892B9F
:101B000051F4D093EF02C093EE026AE070E080E0FF
:101B100090E00E94630186E00E94B600892B51F498
:101B2000D093ED02C093EC026AE070E080E090E0B8
:101B30000E94630187E00E94B600892B51F4D09384
:101B4000EB02C093EA026AE070E080E090E00E945D
:101B5000630188E00E94B600892B51F4D093E9021A
:101B6000C093E8026AE070E080E090E00E946301C8
:101B700089E00E94B600892B51F4D093E702C0930C
:101B8000E6026AE070E080E090E00E9463018091EC
:101B9000F0029091F1022091EE023091EF02820F5B
:101BA000931F2091EC023091ED02820F931F209140
:101BB000EA023091EB02820F931F2091E8023091EC
:101BC000E902820F931F2091E6023091E702820F13
:101BD000931F9401281B390BC901309301012093F5
:101BE000000160E0892B09F07EC180E00E941006B0
:101BF0008DE691E00E94A20661E080E00E9410065E
:101C000088E791E00E94A20668EE73E080E090E031
:101C10000E9463010E94430660E080E00E9410067B
:101C20008091F0029091F102019709F083C18AE955
:101C300091E00E94A20660E089E00E941006809177
:101C4000EE029091EF02019709F077C18CEA91E0E2
:101C50000E94A20661E083E00E9410068091EC02DF
:101C60009091ED02019709F06BC18EEB91E00E941B
:101C7000A2066CED75E080E090E00E94630160E0F8
:101C800080E00E9410068091EA029091EB02019799
:101C900009F059C180ED91E00E94A20660E089E060
:101CA0000E9410068091E8029091E902019709F0E4
:101CB0004DC182EE91E00E94A20661E083E00E94A5
:101CC00010068091E6029091E702019709F041C168
:101CD00084EF91E00E94A2066CED75E080E090E058
:101CE0000E9463010E94430684E00E94B600892B93
:101CF00061F466E072E08DEE93E00E94DF066AE038
:101D000070E080E090E00E94630184E00E94B600F1
:101D1000019761F46AE072E08DEE93E00E94DF06C5
:101D20006AE070E080E090E00E94630185E00E943C
:101D3000B600892B61F466E072E087EE93E00E94C2
:101D4000DF066AE070E080E090E00E94630185E0D9
:101D50000E94B600019761F46AE072E087EE93E0BA
:101D60000E94DF066AE070E080E090E00E9463017C
:101D700086E00E94B600892B61F466E072E081EE95
:101D800093E00E94DF0664E670E080E090E00E944D
:101D9000630186E00E94B600019761F46AE072E098
:101DA00081EE93E00E94DF0664E670E080E090E060
:101DB0000E94630187E00E94B600892B61F466E00F
:101DC00072E08BED93E00E94DF0664E670E080E055
:101DD00090E00E94630187E00E94B600019761F4E1
:101DE0006AE072E08BED93E00E94DF0664E670E04B
:101DF00080E090E00E94630188E00E94B600892B99
:101E000061F466E072E085ED93E00E94DF0664E62F
:101E100070E080E090E00E94630188E00E94B600DC
:101E2000019761F46AE072E085ED93E00E94DF06BD
:101E300064E670E080E090E00E94630189E00E9427
:101E4000B600892B61F466E072E08FEC93E00E94AB
:101E5000DF0664E670E080E090E00E94630189E0C4
:101E60000E94B600019761F46AE072E08FEC93E0A3
:101E70000E94DF0664E670E080E090E00E9463016B
:101E80008DE00E94B600892B09F08BC0F09205010D
:101E9000E0920401609004017090050135EB631637
:101EA00071040CF059C0B30182E194E00E945A041D
:101EB0006FE070E080E090E00E9463018FEF681AAD
:101EC000780A7092050160920401E4CF9E3040F4DC
:101ED0002850310981E001C0880F2A95EAF7EACC41
:101EE0002E503109F7CF80E00E94100686E891E07D
:101EF0000E94A2064090000150900101052C000CA8
:101F0000660877084AE0C301B20177FE0EC041E0DF
:101F10006DE288E194E00E94F90566277727CB01FE
:101F200064197509860997094AE00E94540685E9F3
:101F300091E068CE83EA91E07CCE85EB91E088CE9B
:101F400087EC91E094CE89ED91E0A6CE8BEE91E006
:101F5000B2CE8DEF91E0BECE68EE73E080E090E00F
:101F60000E946301B0920501A092040160900401F7
:101F7000709005012AE5621671049CF0B30182E1BC
:101F800094E00E945A046FE070E080E090E00E94CC
:101F9000630131E0631A71087092050160920401D7
:101FA000E5CF8091F0029091F1022091EE02309104
:101FB000EF02820F931F2091EC023091ED02820F0D
:101FC000931F2091EA023091EB02820F931F209120
:101FD000E8023091E902820F931F2091E6023091CE
:101FE000E702820F931F06970CF048C08CE00E9416
:101FF000B600892B09F042C0109203011092020131
:1020000060900201709003018BE5681671049CF4E6
:10201000B30185E194E00E945A046FE070E080E033
:1020200090E00E9463012FEF621A720A709203011E
:1020300060920201E5CF68EE73E080E090E00E94DC
:102040006301F0920301E09202016090020170903E
:10205000030177FC13C0B30185E194E00E945A04A8
:102060006FE070E080E090E00E94630131E0631A6D
:1020700071087092030160920201E7CF64E670E09C
:1020800080E090E00E946301C114D10409F490CC77
:102090000E94FF01882309F48BCC0E94000088CCA9
:1020A00089EC93E00E94AF068FEC93E00E94AF06AC
:1020B00085ED93E00E94AF068BED93E00E94AF06A2
:1020C00081EE93E00E94AF0687EE93E00E94AF0698
:1020D0008DEE93E00E94AF068CE391E09093F403C1
:1020E0008093F3038091E4029091E502835F934033
:1020F00071F4E0910604F091070490818091080446
:102100008095892380831092E5021092E40208955D
:10211000052E97FB1EF400940E949F1057FD07D0D8
:102120000E94F11007FC03D04EF40C949F105095C0
:102130004095309521953F4F4F4F5F4F08959095B3
:102140008095709561957F4F8F4F9F4F08950E94A6
:102150001311A59F900DB49F900DA49F800D911D0C
:1021600011240895B7FF0C94A7100E94A710821B9A
:10217000930B08952F923F924F925F926F927F92AE
:102180008F929F92AF92BF92CF92DF92EF92FF9287
:102190000F931F93CF93DF93CDB7DEB7CA1BDB0B33
:1021A0000FB6F894DEBF0FBECDBF09942A883988D8
:1021B00048885F846E847D848C849B84AA84B984DF
:1021C000C884DF80EE80FD800C811B81AA81B981EB
:1021D000CE0FD11D0FB6F894DEBF0FBECDBFED01FF
:1021E0000895A1E21A2EAA1BBB1BFD010DC0AA1F58
:1021F000BB1FEE1FFF1FA217B307E407F50720F070
:10220000A21BB30BE40BF50B661F771F881F991FEA
:102210001A9469F760957095809590959B01AC0133
:10222000BD01CF010895A29FB001B39FC001A39F3C
:10223000700D811D1124911DB29F700D811D1124FF
:10224000911D0895991B79E004C0991F961708F015
:10225000961B881F7A95C9F780950895EE0FFF1F8A
:102260000590F491E02D09940F931F93CF93DF9382
:102270008230910510F482E090E0E0912604F09124
:10228000270430E020E0B0E0A0E0309799F4211579
:10229000310509F44AC0281B390B24303105D8F523
:1022A0008A819B816115710589F1FB01938382838A
:1022B000FE0111C0408151810281138148175907E5
:1022C000E0F04817590799F4109761F012960C93B3
:1022D000129713961C933296CF01DF91CF911F91E5
:1022E0000F9108950093260410932704F4CF21152D
:1022F000310551F04217530738F0A901DB019A016B
:10230000BD01DF01F801C1CFEF01F9CF90932704A0
:1023100080932604CDCFFE01E20FF31F81939193AA
:102320002250310939832883D7CF2091240430915A
:102330002504232B41F420910801309109013093A9
:1023400025042093240420910601309107012115D2
:10235000310541F42DB73EB740910A0150910B0170
:10236000241B350BE0912404F0912504E217F307B8
:10237000A0F42E1B3F0B2817390778F0AC014E5FF5
:102380005F4F2417350748F04E0F5F1F5093250409
:1023900040932404819391939FCFF0E0E0E09CCFA1
:1023A000CF93DF930097E9F0FC01329713821282FA
:1023B000A0912604B0912704ED0130E020E01097B1
:1023C000A1F420813181820F931F20912404309148
:1023D00025042817390709F061C0F0932504E0931C
:1023E0002404DF91CF910895EA01CE17DF07E8F5C5
:1023F0004A815B819E0141155105B1F7E901FB83DB
:10240000EA8349915991C40FD51FEC17FD0761F478
:10241000808191810296840F951FE90199838883B9
:10242000828193819B838A83F0E0E0E012968D9114
:102430009C9113970097B9F52D913C911197CD017F
:102440000296820F931F20912404309125042817AF
:10245000390739F6309751F5109227041092260467
:10246000B0932504A0932404BCCFD383C2834081BE
:102470005181840F951FC817D90761F44E5F5F4FD4
:1024800088819981480F591F518340838A819B819C
:10249000938382832115310509F0B0CFF09327048F
:1024A000E09326049ECFFD01DC01C0CF138212828F
:1024B000D7CFB0E0A0E0EFE5F2E10C94BC108C01C6
:1024C000009751F4CB010E9434118C01C801CDB7A3
:1024D000DEB7E0E10C94D810FC01E60FF71F9C0179
:1024E00022503109E217F30708F49DC0D901CD91BC
:1024F000DC911197C617D70798F0C530D10530F396
:10250000CE0104978617970708F3C61BD70B2297AF
:10251000C193D1936D937C93CF010E94D011D6CFFC
:102520005B01AC1ABD0A4C018C0E9D1EA0912604C5
:10253000B0912704512C412CF12CE12C109731F54E
:1025400080912404909125048815990509F05CC0B8
:102550004616570608F058C0809106019091070171
:10256000009741F48DB79EB740910A0150910B013D
:10257000841B950BE817F90708F055C0F093250464
:10258000E0932404F90171836083A0CF8D919C9125
:10259000119712966C90129713967C901397A8152A
:1025A000B90559F56C0142E0C40ED11CCA14DB0414
:1025B00020F1AC014A195B09DA011296159780F0F7
:1025C0006282738251834083D9016D937C93E114BD
:1025D000F10471F0D7011396FC93EE93129776CF26
:1025E00022968C0F9D1FF90191838083F301EFCF19
:1025F000F0932704E093260469CF4816590608F49F
:102600002C017D01D3019ACFCB010E9434117C01B2
:10261000009749F0AE01B8010E941613C8010E944C
:10262000D011870153CF10E000E050CFFB01DC0157
:1026300002C001900D9241505040D8F70895FB011F
:10264000DC0101900D920020E1F7089510E0C2E650
:10265000D0E004C0FE010E942E112196C336D1079E
:06266000C9F7F894FFCF5A
:1026660006005A005A0000002804800000004000BE
:10267600140054000000000035029501C2018202D8
:10268600F301D101E5010000000044031703DD0555
:10269600090310030D030A03000000004A05950113
:1026A600DD050903A605BC053205000000004E063F
:1026B6009501DD05A2024256502043617220506109
:1026C600726B696E670053797374656D00536F7230
:1026D60072792C204E6F20005061726B696E6720F4
:1026E6005370616365002020204861766520536C35
:1026F6006F743A2000202020200053313A46696C3E
:102706006C200053313A456D7074790053323A4665
:10271600696C6C200053323A456D707479005333FE
:102726003A46696C6C200053333A456D70747900F3
:1027360053343A46696C6C200053343A456D7074D4
:10274600790053353A46696C6C200053353A456D2D
:102756007074790053363A46696C6C200053363AE9
:0C276600456D707479003235350030008C
:00000001FF
