:020000040000FA
:100000000C9463000C948B000C948B000C94AB0844
:100010000C94AB080C94AB080C948B000C948B00E4
:100020000C948B000C948B000C948B000C94EF07B9
:100030000C948B000C948B000C948B000C948B0014
:100040000C9432060C948B000C94A2060C947C0643
:100050000C948B000C948B000C948B000C948B00F4
:100060000C94D4060C948B000000000024002700A0
:100070002A0000000000250028002B0000000000DE
:1000800023002600290004040404040404040202DA
:100090000202020203030303030301020408102007
:1000A0004080010204081020010204081020000012
:1000B0000008000201000003040700000000000027
:1000C0000000C208690C11241FBECFEFD8E0DEBFCC
:1000D000CDBF11E0A0E0B1E0EEEDFDE102C0059082
:1000E0000D92A638B107D9F723E0A6E8B1E001C028
:1000F0001D92A134B207E1F710E0C2E6D0E004C0DF
:100100002197FE010E94EA0CC136D107C9F70E946F
:100110007C090C94E20E0C940000833081F028F4EA
:10012000813099F08230A9F008958730A9F08830A5
:10013000C9F08430B1F4809180008F7D03C080913C
:1001400080008F7780938000089584B58F7784BD79
:10015000089584B58F7DFBCF8091B0008F77809319
:10016000B00008958091B0008F7DF9CFCF93DF93D9
:10017000282F30E0F901E255FF4F8491F901E6564E
:10018000FF4FD491F901EA57FF4FC491CC23A1F05E
:1001900081110E948D00EC2FF0E0EE0FFF1FE4585C
:1001A000FF4FA591B491EC91ED2381E090E009F42B
:1001B00080E0DF91CF91089580E090E0FACF1F9327
:1001C000CF93DF93282F30E0F901E255FF4F849160
:1001D000F901E656FF4FD491F901EA57FF4FC49158
:1001E000CC23A9F0162F81110E948D00EC2FF0E096
:1001F000EE0FFF1FEE58FF4FA591B4918FB7F89403
:10020000EC91111108C0D095DE23DC938FBFDF91F4
:10021000CF911F910895DE2BF8CFCF93DF9390E01D
:10022000FC01E656FF4F24918A579F4FFC018491B1
:100230008823D1F090E0880F991FFC01E859FF4F07
:10024000A591B491FC01EE58FF4FC591D491611175
:100250000EC09FB7F8948C91E22FE0958E238C937B
:100260002881E223E8839FBFDF91CF9108958FB764
:10027000F894EC91E22BEC938FBFF6CF3FB7F89454
:1002800080912F0290913002A0913102B091320200
:1002900026B5A89B05C02F3F19F00196A11DB11DE1
:1002A0003FBFBA2FA92F982F8827BC01CD01620F1D
:1002B000711D811D911D42E0660F771F881F991FD8
:1002C0004A95D1F708958F929F92AF92BF92CF92A5
:1002D000DF92EF92FF924B015C010E943E016B01A5
:1002E0007C010E943E016C197D098E099F09683EC0
:1002F000734081059105A8F321E0821A9108A108B5
:10030000B10888EEC80E83E0D81EE11CF11C8114F0
:100310009104A104B10429F7FF90EF90DF90CF90F2
:10032000BF90AF909F908F900895AF92BF92CF9261
:10033000DF92EF92FF920F931F93CF93DF936C01A5
:100340007B018B01040F151FEB015E01AE18BF0886
:10035000C017D10759F06991D601ED91FC91019038
:10036000F081E02DC6010995892B79F7C501DF9150
:10037000CF911F910F91FF90EF90DF90CF90BF90A2
:10038000AF900895FC01538D448D252F30E0842FCC
:1003900090E0821B930B541710F0CF9608950197AD
:1003A0000895FC01918D828D981761F0A28DAE0F9A
:1003B000BF2FB11D5D968C91928D9F5F9F73928F21
:1003C00090E008958FEF9FEF0895FC01918D828D4D
:1003D000981731F0828DE80FF11D858D90E008951A
:1003E0008FEF9FEF0895FC01918D228D892F90E072
:1003F000805C9F4F821B91098F739927089583E337
:1004000092E00E94F30121E0892B09F420E0822F81
:10041000089580E090E0892B29F00E94FF0181116E
:100420000C9400000895FC01A48DA80FB92FB11DF4
:10043000A35ABF4F2C91848D90E001968F7399271A
:10044000848FA689B7892C93A089B1898C918370F8
:1004500080648C93938D848D981306C00288F389F1
:10046000E02D80818F7D80830895EF92FF920F931E
:100470001F93CF93DF93EC0181E0888F9B8D8C8D50
:1004800098131AC0E889F989808185FF15C09FB744
:10049000F894EE89FF896083E889F9898081837007
:1004A000806480839FBF81E090E0DF91CF911F91B6
:1004B0000F91FF90EF900895F62E0B8D10E00F5FD7
:1004C0001F4F0F731127E02E8C8D8E110CC00FB6AD
:1004D00007FCFACFE889F989808185FFF5CFCE0145
:1004E0000E941302F1CFEB8DEC0FFD2FF11DE35AAB
:1004F000FF4FF0829FB7F8940B8FEA89FB898081C8
:100500008062CFCFCF93DF93EC01888D8823B9F041
:10051000AA89BB89E889F9898C9185FD03C080810E
:1005200086FD0DC00FB607FCF7CF8C9185FFF2CF8B
:10053000808185FFEDCFCE010E941302E9CFDF91CC
:10054000CF91089508951F93CF93DF93C1E0C09397
:100550008A01882399F1D091B8001091BA00809156
:10056000BC008A7B8093BC0060E082E10E94DF00D7
:1005700060E083E10E94DF001092F401C093F30178
:100580001092CE0161E082E10E94DF0061E083E130
:100590000E94DF008091B9008E7F8093B900809126
:1005A000B9008D7F8093B90088E48093B80085E41A
:1005B0008093BC001093BA00D093B800DF91CF9124
:1005C0001F9108952091AB01260F3327331F21324D
:1005D0003105ECF42091F401FC0190E080E024303E
:1005E00069F082E00895A091AB012191AC014557DB
:1005F0005E4FA40FB52FB11D2C930196861798F36B
:100600008091AB01680F6093AB0180E0089581E0B9
:10061000089508958FEF9FEF08958FEF9FEF08954E
:100620008091890190E09195819591090895CF92EB
:10063000DF92EF92FF920F931F93CF93DF937C0192
:10064000CB018A012091FA01222389F0EB016B0191
:10065000C40ED51ECC15DD0569F06991D701ED9169
:10066000FC910190F081E02DC7010995F3CF642F33
:100670000E94E202C801DF91CF911F910F91FF907C
:10068000EF90DF90CF900895CF93DF931F92CDB777
:10069000DEB769832091FA012223F9F020911D022F
:1006A000203258F021E030E0FC013383228390E0D7
:1006B00080E00F90DF91CF9108958091FB01E82FAA
:1006C000F0E0E450FE4F998190838F5F8093FB01AF
:1006D00080931D0281E090E0ECCF61E0CE010196B5
:1006E0000E94E202F7CFCF92DF92EF92FF920F9338
:1006F0001F93CF93DF93FC01C48121E02093FA0183
:10070000C0931C021092FB0110921D028385682B7E
:1007100080ED92E00E944403D0911D02D13208F096
:1007200092C00E943E016B017C018091F401811115
:1007300065C082E08093F40181E08093F3018FEF44
:100740008093F2011092F101D093F001ACEFB1E08F
:10075000E0EDF1E080E0D81385C01092CF018091E8
:10076000CF01CC0FC82BC093CF018091CE01813037
:1007700009F07CC01092CE010E943E016B017C0109
:100780008091CF018093BB008091F6019091F70199
:10079000A091F801B091F901892B8A2B8B2B99F04C
:1007A0000E943E010091F6011091F7012091F8019D
:1007B0003091F9016C197D098E099F0906171707F9
:1007C00028073907E0F18091BC0083FDD9CF85EC83
:1007D0008093BC000E943E016B017C018091F4017A
:1007E000823009F445C08091F2018F3F61F1809120
:1007F000F201803241F18091F20125C08091F60131
:100800009091F701A091F801B091F901892B8A2B01
:100810008B2B09F48ACF0E943E010091F6011091C2
:10082000F7012091F8013091F9016C197D098E09C9
:100830009F09061717072807390708F076CF809118
:10084000F5010E94A3021092FB0110921D0210926A
:10085000FA01DF91CF911F910F91FF90EF90DF9000
:10086000CF9008959D9191938F5F75CF85EEB0CF16
:100870008091F6019091F701A091F801B091F901F2
:10088000892B8A2B8B2B09F4A9CF0E943E01009162
:10089000F6011091F7012091F8013091F9016C19DE
:1008A0007D098E099F09061717072807390708F0E1
:1008B00095CFC5CF1F93CF93DF93EC01162F88817F
:1008C0008C3008F04EC061E0812F0E940D018881BC
:1008D000282F30E0F901EE0FFF1FE20FF31FE45263
:1008E000FD4F1F736081607C612B608319821A82C7
:1008F0002CE0622F0E94DE0C829FB001112430E0B8
:1009000020E0AB01420F531FFA01EE0FFF1FE40F6F
:10091000F51FE452FD4F908196FD16C02F5F3F4FAB
:100920002C30310571F781110FC01092800082E0E8
:10093000809381001092850010928400B19A80917A
:100940006F00826080936F00E8818E2F90E0FC0141
:10095000EE0FFF1FE80FF91FE452FD4F8081806406
:1009600080838881DF91CF911F91089590E080E08E
:1009700008950F931F93CF938C01C62F0E9473038A
:100980006C2F6460C8010E9473036C2F6B7FC801D9
:100990000E94730383EC90E00197F1F7CF911F91D0
:1009A0000F9108950F931F93CF93DF938C01D62F50
:1009B000C42F607F642B0E94B90480E1D89FB001EE
:1009C00011246C2BC801DF91CF911F910F910C94D2
:1009D000B904CF93DF93CDB7DEB728970FB6F8945D
:1009E000DEBF0FBECDBF98E0E8E0F1E0DE0111967A
:1009F00001900D929A95E1F790913903981708F4B8
:100A00008FEF90E0880F991F21E030E02C0F3D1F01
:100A1000820F931FFC016081606840E081E393E0F6
:100A200028960FB6F894DEBF0FBECDBFDF91CF91F1
:100A30000C94D20441E00E94D20481E090E0089539
:100A4000FB0101900020E9F73197AF01461B570BDE
:100A5000DC01ED91FC910280F381E02D0994CF93AC
:100A6000DF93EC0188819981009711F00E948C0D31
:100A7000198218821D821C821B821A82DF91CF91FB
:100A80000895FC0180819181009711F00C948C0DE8
:100A900008950F931F93CF93DF93EC018881998181
:100AA000009759F02A813B812617370730F081E003
:100AB000DF91CF911F910F9108958B016F5F7F4F51
:100AC0000E94150E009759F0998388831B830A832F
:100AD0002C813D81232B59F7FC011082E8CF80E067
:100AE000E7CF0F931F93CF93DF93EC010C811D8110
:100AF0000F5F1F4FB8010E944905882391F028819C
:100B000039818C819D8160E471E0820F931F0E9486
:100B1000DB0E1D830C83CE01DF91CF911F910F91CE
:100B20000895CE010E942F05F6CFEF92FF920F930A
:100B30001F93CF93DF93EC01FB01E080F180E11480
:100B4000F10411F10481158101151105A9F08C81C1
:100B50009D81080F191FB801CE010E944905882305
:100B600099F0288139818C819D81B701820F931F73
:100B70000E94DB0E1D830C83CE01DF91CF911F916C
:100B80000F91FF90EF900895CE010E942F05F4CFB2
:100B9000EF92FF920F931F93CF93DF93EC017B01B2
:100BA0008A01BA010E94490581110BC0CE010E9441
:100BB0002F05CE01DF91CF911F910F91FF90EF9004
:100BC00008951D830C83B701888199810E94DB0EF3
:100BD000F0CFCF93DF93EC01FB0101900020E9F708
:100BE0003197AF01461B570B0E94C805CE01DF911C
:100BF000CF91089585ED8093BC008091F60190918E
:100C0000F701A091F801B091F9010796A11DB11D5E
:100C100023E0B695A795979587952A95D1F72091CA
:100C2000BC0024FD03C01092F40108954091F60128
:100C30005091F7016091F8017091F901452B462B15
:100C4000472B69F30097A105B10541F02AE22A95E7
:100C5000F1F700C00197A109B109E1CF8091F50139
:100C60000C94A3021F920F920FB60F9211242F9390
:100C70003F938F939F93AF93BF9380912B0290915B
:100C80002C02A0912D02B0912E0230912A0223E075
:100C9000230F2D3758F50196A11DB11D20932A026F
:100CA00080932B0290932C02A0932D02B0932E02DE
:100CB00080912F0290913002A0913102B0913202C6
:100CC0000196A11DB11D80932F0290933002A09335
:100CD0003102B0933202BF91AF919F918F913F91BA
:100CE0002F910F900FBE0F901F90189526E8230F9D
:100CF0000296A11DB11DD2CF1F920F920FB60F9277
:100D000011242F933F934F935F936F937F938F9310
:100D10009F93AF93BF93EF93FF9383E392E00E947F
:100D20001302FF91EF91BF91AF919F918F917F91AE
:100D30006F915F914F913F912F910F900FBE0F9048
:100D40001F9018951F920F920FB60F9211242F9398
:100D50008F939F93EF93FF93E0914302F0914402AE
:100D60008081E0914902F0914A0282FD1BC090818E
:100D700080914C028F5F8F7320914D02821741F05A
:100D8000E0914C02F0E0ED5CFD4F958F80934C02BA
:100D9000FF91EF919F918F912F910F900FBE0F9028
:100DA0001F9018958081F4CF1F920F920FB60F926B
:100DB00011242F933F934F935F936F937F938F9360
:100DC0009F93AF93BF93EF93FF938091B900887F78
:100DD000803609F44AC0F0F5883209F4A5C018F548
:100DE000803109F499C0B8F4882309F4F5C088303B
:100DF00009F492C0FF91EF91BF91AF919F918F91B4
:100E00007F916F915F914F913F912F910F900FBE06
:100E10000F901F901895883109F486C0803251F7E1
:100E20008093F20114C0803409F49BC040F48033F5
:100E3000B9F38833F9F68093F20185ECAEC08035C2
:100E400009F483C0883509F494C0883499F60E9467
:100E5000FA05D0CF883909F48AC038F5883729F0E7
:100E600050F4883611F0803729F683E08093F4013E
:100E70001092CD0155C0883809F479C0803919F035
:100E8000803809F0B7CF8091CD01803208F06FC073
:100E9000E091CD0181E08E0F8093CD018091BB0068
:100EA000F0E0E355FE4F80833BC0803B39F0D0F447
:100EB000803A09F477C0883A09F09CCF84E08093A7
:100EC000F4011092AC011092AB01F0E0E0E0099562
:100ED0008091AB0181110FC081E08093AB01109232
:100EE0008B0109C0803C09F4A8CF883C09F4A5CF48
:100EF000883B09F07FCFE091AC0181E08E0F8093B9
:100F0000AC01F0E0E557FE4F80818093BB009091EB
:100F1000AC018091AB0129C08091CF018093BB00CF
:100F200085EC8093BC0066CF9091F1018091F00137
:100F3000981758F5E091F10181E08E0F8093F1014F
:100F4000F0E0E053FE4F8081E9CFE091F10181E0D4
:100F50008E0F8093F1018091BB00F0E0E053FE4FD3
:100F600080839091F1018091F0019817C8F285E893
:100F7000D8CFE091F10181E08E0F8093F101809153
:100F8000BB00F0E0E053FE4F80838091F3018111BC
:100F90005ECF81E08093CE0184EA8093BC00109202
:100FA000F40128CF85EC8093BC001092F40180916D
:100FB000CD01803230F4E091CD01F0E0E355FE4FF9
:100FC00010826091CD0170E08DEA91E0F0E0E0E008
:100FD00009951092CD010ECF1092F20138CF1F92D9
:100FE0000F920FB60F9211242F933F934F935F935D
:100FF0006F937F938F939F93AF93BF93CF93DF9321
:10100000EF93FF9380918801C0910003D0E087FFA8
:1010100024C01092850010928400809188018F5F17
:101020008093880180918801082E000C990B8C1701
:101030009D0724F4809188018C30C4F18091840054
:1010400090918500049680349C4908F47AC0809180
:10105000840090918500049676C080918801082EC6
:10106000000C990B8C179D07C4F6E09188018E2F18
:10107000EE0F990BFC01EE0FFF1FE80FF91FE45272
:10108000FD4F808186FFC9CFE09188018E2FEE0F42
:10109000990BFC01EE0FFF1FE80FF91FE452FD4F03
:1010A000808160E08F730E94DF00B7CF20918400C1
:1010B00030918500E09188018E2FEE0F990BFC0195
:1010C000EE0FFF1FE80FF91FE452FD4F818192815F
:1010D000820F931F9093890080938800E09188018C
:1010E0008E2FEE0F990BFC01EE0FFF1FE80FF91F7B
:1010F000E452FD4F808186FF11C0E09188018E2F60
:10110000EE0F990BFC01EE0FFF1FE80FF91FE452E1
:10111000FD4F808161E08F730E94DF00FF91EF91AE
:10112000DF91CF91BF91AF919F918F917F916F91FF
:101130005F914F913F912F910F900FBE0F901F9095
:10114000189580E49CE990938900809388008FEF44
:1011500080938801E3CF1F920F920FB60F92112454
:101160000F900FBE0F901F901895FC0111821082F6
:10117000138212821582148250E040E065E871E02B
:101180000C94C805109236021092350288EE93E056
:10119000A0E0B0E08093370290933802A093390228
:1011A000B0933A0224E131E03093340220933302C9
:1011B00025EC30E03093400220933F0224EC30E0F5
:1011C000309342022093410220EC30E030934402FD
:1011D0002093430221EC30E03093460220934502F5
:1011E00022EC30E0309348022093470226EC30E0B6
:1011F00030934A022093490210924C0210924D0201
:1012000010924E0210924F021092D3021092D2020C
:101210008093D4029093D502A093D602B093D702C4
:1012200086E291E09093D1028093D0021092340331
:101230001092330388E391E090933203809331035B
:1012400087E28093350380E180933A0382E08093C4
:101250003B0310923C03809100038C3008F044C0A3
:1012600091E0980F9093000380932E0390E0FC018F
:10127000EE0FFF1FE80FF91FE452FD4F88EB9BE0D4
:1012800092838183809100038C3090F591E0980FD8
:101290009093000380932B0390E0FC01EE0FFF1F5F
:1012A000E80FF91FE452FD4F88EB9BE092838183A6
:1012B00085E293E00E94B5088FE193E00E94B508B3
:1012C00089E193E00E94B50883E193E00E94B508AC
:1012D0008DE093E00E94B50887E093E00E94B50896
:1012E00081E093E00C94B5088FEF80932E03CACF72
:1012F0008FEF80932B03DCCFCF93DF93CDB7DEB797
:10130000A1970FB6F894DEBF0FBECDBF789484B519
:10131000826084BD84B5816084BD85B5826085BDF1
:1013200085B5816085BD80916E00816080936E007F
:101330001092810080918100826080938100809171
:101340008100816080938100809180008160809322
:1013500080008091B10084608093B1008091B000E2
:1013600081608093B00080917A00846080937A00DD
:1013700080917A00826080937A0080917A00816007
:1013800080937A0080917A00806880937A0010922E
:10139000C100E0914302F091440282E08083E09139
:1013A0003F02F09140021082E0914102F09142022E
:1013B0008FEC808310924B02E0914702F09148023B
:1013C00086E08083E0914502F09146028081806151
:1013D0008083E0914502F09146028081886080839D
:1013E000E0914502F0914602808180688083E0911F
:1013F0004502F091460280818F7D808360E084E029
:101400000E940D0160E085E00E940D0160E086E031
:101410000E940D0160E087E00E940D0160E088E01D
:101420000E940D0160E089E00E940D0160E08CE007
:101430000E940D0160E08DE00E940D0163E070E00C
:101440008EE293E00E945A046BE070E08BE293E03E
:101450000E945A04E0912E03EC30E0F420912F0317
:1014600088E890E0821B910927FD9395F3E0880FAF
:10147000991FFA95E1F704974FB7F8942E2F30E0B3
:10148000F901EE0FFF1FE20FF31FE452FD4F9283AD
:1014900081834FBF7AE0472E512C612C712C6BE376
:1014A000262E6FE1362E80913603886080933603B6
:1014B00022E02093390362E370E080E090E00E9434
:1014C000630160913C0381E393E00E94730368EE43
:1014D00073E080E090E00E94630160E381E393E0C9
:1014E0000E94B9048BE496E40197F1F760E381E38D
:1014F00093E00E94B9048BE496E40197F1F760E36E
:1015000081E393E00E94B90483E592E00197F1F74B
:1015100060E281E393E00E94B90460913603606267
:1015200040E081E393E00E94D20484E0809337039B
:1015300040E06CE081E393E00E94D20440E061E08F
:1015400081E393E00E94D204C1010197F1F7E2E048
:10155000E093380340E066E081E393E00E94D20428
:1015600040E062E081E393E00E94D204C101019770
:10157000F1F7F8E0F0933C0360E081E393E00E9430
:10158000730380E00E94E90468E471E081E393E082
:101590000E94200581E00E94E90468E571E081E392
:1015A00093E00E94200568EB7BE080E090E00E94E1
:1015B000630140E061E081E393E00E94D204C10155
:1015C0000197F1F784E00E94B60088248394912C5F
:1015D000892B11F0912C812C909229028092280263
:1015E00085E00E94B60001E010E0892B11F010E0C8
:1015F00000E0109327020093260286E00E94B600C6
:10160000AA24A394B12C892B11F0B12CA12CB09257
:101610002502A092240287E00E94B600CC24C39445
:10162000D12C892B11F0D12CC12CD0922302C09245
:10163000220288E00E94B600EE24E394F12C892B6C
:1016400011F0F12CE12CF0922102E092200289E0CD
:101650000E94B60021E030E0892B11F030E020E05C
:1016600030931F0220931E02080D191DA00EB11EFB
:10167000CA0CDB1CEC0CFD1CE20EF31E06E010E0B5
:101680000E191F09109301010093000180E00E94D0
:10169000E9046FE571E0012BA1F161E771E081E3FD
:1016A00093E00E942005C0900001D09001010D2C14
:1016B000000CEE08FF08F7FEF1C041E06DE281E3A7
:1016C00093E00E94D20422273327A9012C193D0957
:1016D0004E095F0919A28E010F5D1F4FCA01B901A2
:1016E000A30192010E94BC0C605DF80162938F011E
:1016F000211531054105510589F70115110529F01D
:10170000B80181E393E00E94200568EE73E080E079
:1017100090E00E946301809128029091290266E482
:1017200071E0892B11F062E471E085E293E00E94A0
:10173000E905809126029091270266E471E0892BE9
:1017400011F062E471E08FE193E00E94E90580917D
:1017500024029091250266E471E0892B11F062E485
:1017600071E089E193E00E94E90580912202909165
:10177000230266E471E0892B11F062E471E083E1F9
:1017800093E00E94E905809120029091210266E495
:1017900071E0892B11F062E471E08DE093E00E942A
:1017A000E90580911E0290911F0266E471E0892B89
:1017B00011F062E471E087E093E00E94E9051A828B
:1017C00019821C821B821E821D82609125037091EA
:1017D00026036115710541F04091290350912A03B8
:1017E000CE0101960E94C805CE0101960E947105A6
:1017F0006FE173E00E9495050E94710569E173E055
:101800000E9495050E94710563E173E00E949505B1
:101810000E9471056DE073E00E9495050E947105BC
:1018200067E073E00E949505F3E081309F0769F05F
:10183000FC01608171816115710509F445C0448125
:10184000558181E093E00E94C805CE0101960E9477
:101850004105409105035091060360910103709189
:10186000020383E392E00E94950163E871E083E361
:1018700092E00E94200564E670E080E090E00E9423
:10188000630180E090E0892B09F40DCE0E94FF01F6
:10189000882309F404CE0E94000001CEA70196011E
:1018A00019A28E010F5D1F4FCA01B901A301920158
:1018B0000E94BC0C605DF80162938F012115310517
:1018C0004105510589F719CF81E093E00E942F056A
:1018D000BCCF81E093E00E94410587E093E00E9445
:1018E00041058DE093E00E94410583E193E00E9471
:1018F000410589E193E00E9441058FE193E00E9458
:10190000410585E293E00C9441052F923F924F925E
:101910005F926F927F928F929F92AF92BF92CF927F
:10192000DF92EF92FF920F931F93CF93DF93CDB788
:10193000DEB7CA1BDB0B0FB6F894DEBF0FBECDBF00
:1019400009942A88398848885F846E847D848C84D1
:101950009B84AA84B984C884DF80EE80FD800C81DA
:101960001B81AA81B981CE0FD11D0FB6F894DEBFBD
:101970000FBECDBFED010895A1E21A2EAA1BBB1B1D
:10198000FD010DC0AA1FBB1FEE1FFF1FA217B3074B
:10199000E407F50720F0A21BB30BE40BF50B661F61
:1019A000771F881F991F1A9469F760957095809525
:1019B00090959B01AC01BD01CF010895991B79E081
:1019C00004C0991F961708F0961B881F7A95C9F7CF
:1019D00080950895EE0FFF1F0590F491E02D099476
:1019E0000F931F93CF93DF938230910510F482E021
:1019F00090E0E0913F03F091400330E020E0B0E060
:101A0000A0E0309799F42115310509F44AC0281B4C
:101A1000390B24303105D8F58A819B816115710518
:101A200089F1FB0193838283FE0111C040815181C2
:101A30000281138148175907E0F04817590799F4B4
:101A4000109761F012960C93129713961C9332968E
:101A5000CF01DF91CF911F910F91089500933F0324
:101A600010934003F4CF2115310551F0421753076D
:101A700038F0A901DB019A01BD01DF01F801C1CFF6
:101A8000EF01F9CF9093400380933F03CDCFFE0148
:101A9000E20FF31F819391932250310939832883F8
:101AA000D7CF20913D0330913E03232B41F4209169
:101AB00004013091050130933E0320933D032091B2
:101AC0000201309103012115310541F42DB73EB7D4
:101AD0004091060150910701241B350BE0913D0315
:101AE000F0913E03E217F307A0F42E1B3F0B2817DB
:101AF000390778F0AC014E5F5F4F2417350748F087
:101B00004E0F5F1F50933E0340933D03819391938B
:101B10009FCFF0E0E0E09CCFCF93DF930097E9F018
:101B2000FC01329713821282A0913F03B0914003CF
:101B3000ED0130E020E01097A1F420813181820F87
:101B4000931F20913D0330913E032817390709F078
:101B500061C0F0933E03E0933D03DF91CF91089580
:101B6000EA01CE17DF07E8F54A815B819E01411546
:101B70005105B1F7E901FB83EA8349915991C40FFB
:101B8000D51FEC17FD0761F4808191810296840FC7
:101B9000951FE90199838883828193819B838A833E
:101BA000F0E0E0E012968D919C9113970097B9F5C3
:101BB0002D913C911197CD010296820F931F209198
:101BC0003D0330913E032817390739F6309751F518
:101BD0001092400310923F03B0933E03A0933D0345
:101BE000BCCFD383C28340815181840F951FC81716
:101BF000D90761F44E5F5F4F88819981480F591F63
:101C0000518340838A819B8193838283211531058F
:101C100009F0B0CFF0934003E0933F039ECFFD0166
:101C2000DC01C0CF13821282D7CFB0E0A0E0EBE19D
:101C3000FEE00C94870C8C01009751F4CB010E94BC
:101C4000F00C8C01C801CDB7DEB7E0E10C94A30C19
:101C5000FC01E60FF71F9C0122503109E217F30740
:101C600008F49DC0D901CD91DC911197C617D70713
:101C700098F0C530D10530F3CE0104978617970749
:101C800008F3C61BD70B2297C193D1936D937C9316
:101C9000CF010E948C0DD6CF5B01AC1ABD0A4C015E
:101CA0008C0E9D1EA0913F03B0914003512C412CFE
:101CB000F12CE12C109731F580913D0390913E037A
:101CC0008815990509F05CC04616570608F058C0FB
:101CD0008091020190910301009741F48DB79EB766
:101CE0004091060150910701841B950BE817F907F5
:101CF00008F055C0F0933E03E0933D03F901718372
:101D00006083A0CF8D919C91119712966C90129741
:101D100013967C901397A815B90559F56C0142E00C
:101D2000C40ED11CCA14DB0420F1AC014A195B09B2
:101D3000DA011296159780F0628273825183408394
:101D4000D9016D937C93E114F10471F0D7011396DE
:101D5000FC93EE93129776CF22968C0F9D1FF9017C
:101D600091838083F301EFCFF0934003E0933F032F
:101D700069CF4816590608F42C017D01D3019ACF8A
:101D8000CB010E94F00C7C01009749F0AE01B80134
:101D90000E94D20EC8010E948C0D870153CF10E023
:101DA00000E050CFFB01DC0102C001900D924150D8
:101DB0005040D8F70895FB01DC0101900D920020FE
:101DC000E1F7089510E0C2E6D0E004C0FE010E94F1
:101DD000EA0C2196C336D107C9F7F894FFCF060065
:101DE0000000410380000000400014005400000087
:101DF000000035029501C2018202F301D101E50123
:101E00000000000044031703B604090310030D0388
:101E10000A03000000001A059501B604A2022C0076
:101E200032353500300042565020436172205061F7
:101E3000726B696E670053797374656D00536F72CE
:101E400072792C204E6F205061726B696E67004171
:101E50007661696C61626C6520536C6F74733A20B3
:041E6000000D0A0067
:107E0000112484B714BE81FFF0D085E080938100F7
:107E100082E08093C00088E18093C10086E0809377
:107E2000C20080E18093C4008EE0C9D0259A86E02C
:107E300020E33CEF91E0309385002093840096BBD3
:107E4000B09BFECF1D9AA8958150A9F7CC24DD24C4
:107E500088248394B5E0AB2EA1E19A2EF3E0BF2EE7
:107E6000A2D0813461F49FD0082FAFD0023811F036
:107E7000013811F484E001C083E08DD089C08234E0
:107E800011F484E103C0853419F485E0A6D080C0E4
:107E9000853579F488D0E82EFF2485D0082F10E0AE
:107EA000102F00270E291F29000F111F8ED06801E7
:107EB0006FC0863521F484E090D080E0DECF843638
:107EC00009F040C070D06FD0082F6DD080E0C81688
:107ED00080E7D80618F4F601B7BEE895C0E0D1E017
:107EE00062D089930C17E1F7F0E0CF16F0E7DF06D8
:107EF00018F0F601B7BEE89568D007B600FCFDCFD4
:107F0000A601A0E0B1E02C9130E011968C91119780
:107F100090E0982F8827822B932B1296FA010C0160
:107F200087BEE89511244E5F5F4FF1E0A038BF0790
:107F300051F7F601A7BEE89507B600FCFDCF97BE46
:107F4000E89526C08437B1F42ED02DD0F82E2BD052
:107F50003CD0F601EF2C8F010F5F1F4F84911BD097
:107F6000EA94F801C1F70894C11CD11CFA94CF0C13
:107F7000D11C0EC0853739F428D08EE10CD085E9AC
:107F80000AD08FE07ACF813511F488E018D01DD067
:107F900080E101D065CF982F8091C00085FFFCCF94
:107FA0009093C60008958091C00087FFFCCF809118
:107FB000C00084FD01C0A8958091C6000895E0E648
:107FC000F0E098E1908380830895EDDF803219F02E
:107FD00088E0F5DFFFCF84E1DECF1F93182FE3DFCA
:107FE0001150E9F7F2DF1F91089580E0E8DFEE27F6
:047FF000FF270994CA
:027FFE00040479
:00000001FF
